:1000000000180020C1000000E9050000AD05000057
:10001000AD050000AD050000AD050000AD05000018
:10002000AD050000AD050000AD050000E9050000CC
:10003000E9050000AD05000051150000591500004C
:10004000E9050000E9050000E9050000E9050000F8
:10005000E9050000E9050000E9050000E9050000E8
:10006000E9050000E9050000E9050000E9050000D8
:10007000E9050000E9050000E9050000E9050000C8
:10008000E9050000E9050000E9050000E9050000B8
:10009000E9050000E9050000E9050000E9050000A8
:1000A000850D0000E9050000E9050000E9050000F4
:1000B000E9050000E9050000E9050000E905000088
:1000C000F8B500F095FA0821474A484B1A60484AAB
:1000D000484B1A60484A494B1A60494B1A780A4201
:1000E00002D01A780A431A702A22464B46481A70E0
:1000F00000234649464C1A188A4203D2E558043375
:100100001560F8E70021434B434A934201D202C3F2
:10011000FBE70023414A424958589446985004331B
:10012000C02BF9D100210326FF2580248A083D4BEE
:100130009200D2180B002F003340DB009F40106864
:100140000131B84307002000984003003B4313608F
:100150002029EBD16246344B1A608A22334B1A7045
:10016000334B663A5A707C321A709E3A9979114232
:10017000FCD0102299791142FCD10C209A792C499B
:100180000240082AFAD1053A0A713D324A71203AF2
:1001900099791142FCD0402299791142FCD025492D
:1001A000254A11602021224A117014399A790A4097
:1001B0000C2AFBD1214A224B1A60224A224B1A6098
:1001C0000022224B1A60224B07321A60214A224B2E
:1001D0001A6062B600F088FA01F080FB00F00EFAB7
:1001E00001F0C2F9FEE7C046300004F0348004405C
:1001F000823F0000388004400100000F3C80044032
:1002000002D0074000E0074040FEFF1F3CFFFF1FF9
:10021000F01A00003CFFFF1F1C01002000F9FF1F27
:100220000000000000E400E008ED00E0005006409F
:10023000004006400000011044800440C000050555
:10024000048004407FBB000014E000E018E000E000
:1002500010E000E00000202020ED00E0FFFFFFFFA5
:10026000FFFFFFFFFFFFFFFFFFFFFFFFFFFFFFFF9E
:10027000FFFFFFFFFFFFFFFFFFFFFFFFFFFFFFFF8E
:10028000FFFFFFFFFFFFFFFFFFFFFFFFFFFFFFFF7E
:10029000FFFFFFFFFFFFFFFFFFFFFFFFFFFFFFFF6E
:1002A000FFFFFFFFFFFFFFFFFFFFFFFFFFFFFFFF5E
:1002B000FFFFFFFFFFFFFFFFFFFFFFFFFFFFFFFF4E
:1002C000FFFFFFFFFFFFFFFFFFFFFFFFFFFFFFFF3E
:1002D000FFFFFFFFFFFFFFFFFFFFFFFFFFFFFFFF2E
:1002E000FFFFFFFFFFFFFFFFFFFFFFFFFFFFFFFF1E
:1002F000FFFFFFFFFFFFFFFFFFFFFFFFFFFFFFFF0E
:10030000FFFFFFFFFFFFFFFFFFFFFFFFFFFFFFFFFD
:10031000FFFFFFFFFFFFFFFFFFFFFFFFFFFFFFFFED
:10032000FFFFFFFFFFFFFFFFFFFFFFFFFFFFFFFFDD
:10033000FFFFFFFFFFFFFFFFFFFFFFFFFFFFFFFFCD
:10034000FFFFFFFFFFFFFFFFFFFFFFFFFFFFFFFFBD
:10035000FFFFFFFFFFFFFFFFFFFFFFFFFFFFFFFFAD
:10036000FFFFFFFFFFFFFFFFFFFFFFFFFFFFFFFF9D
:10037000FFFFFFFFFFFFFFFFFFFFFFFFFFFFFFFF8D
:10038000FFFFFFFFFFFFFFFFFFFFFFFFFFFFFFFF7D
:10039000FFFFFFFFFFFFFFFFFFFFFFFFFFFFFFFF6D
:1003A000FFFFFFFFFFFFFFFFFFFFFFFFFFFFFFFF5D
:1003B000FFFFFFFFFFFFFFFFFFFFFFFFFFFFFFFF4D
:1003C000FFFFFFFFFFFFFFFFFFFFFFFFFFFFFFFF3D
:1003D000FFFFFFFFFFFFFFFFFFFFFFFFFFFFFFFF2D
:1003E000FFFFFFFFFFFFFFFFFFFFFFFFFFFFFFFF1D
:1003F000FFFFFFFFFFFFFFFFFFFFFFFFFFFFFFFF0D
:10040000FFFFFFFFFFFFFFFFFFFFFFFFDEF9FFFF23
:1004100010B5064C2378002B07D1054B002B02D0DA
:10042000044800E000BF0123237010BD3CFFFF1F04
:1004300000000000F01A0000084B10B5002B03D09C
:100440000749084800E000BF07480368002B00D1B7
:1004500010BD064B002BFBD09847F9E700000000C9
:1004600040FFFF1FF01A00003CFFFF1F00000000CC
:100470008023C0B25B02002801D00A4800E00A488D
:10048000C9B203600223002901D0084900E00849ED
:10049000D2B20B600123002A01D0064A00E0064ACE
:1004A00013607047440000F8480000F8040000F8AA
:1004B000080000F8C40000F8C80000F810B50824CF
:1004C000002211001000FFF7D3FF0022013C1100B1
:1004D0000120E4B2FFF7CCFF002CF1D110BDFFFFEB
:1004E000F83810B5042827D801F03AF9032619196D
:1004F0002000124B1B78002B1ED0FFF7DFFF104AA5
:10050000202113780133DBB21370182B04D10D4B6B
:100510001960002313700FE00B4B19600CE00122EF
:10052000064B1A700022064B1A7005E00022034B9E
:100530001A70044B20321A6010BDC04640FEFF1FE7
:1005400058FFFF1F840000F8880000F810B5012153
:100550000D2000F055F80121002000F051F8002195
:10056000022000F04DF80121032000F049F880221C
:10057000064B52021A600222054B1A60054B1E32CE
:100580001A60054A054B1A6010BDC046440000F8C9
:10059000080000F8840000F8E10400006CFFFF1F71
:1005A00010B5002000F03EF910BDFFFF70B58025AA
:1005B0008026ED02F6000B4C23682B4201D000F0A0
:1005C000E1FB2368334201D000F00EF823681B05DD
:1005D00001D500F009F82368DB04ECD500F004F83D
:1005E000E9E7C0463480044010B5FFF7DFFFFFFFA6
:1005F0000022014B1A607047008104407047FFFFE2
:10060000F0B51A282FD80C2217004743164CE519CD
:100610006B682600012901D0042911D150433458B8
:100620003018257D027A20202A432275A22252000A
:100630001A601A68042901D1024313E0824311E0D1
:1006400038592C7A027DA24302758022002908D0F5
:10065000022902D10422FF3204E00022032901D141
:10066000812252001A60F0BD2819000072B60C4BAE
:100670001A680C4B18680C4B1B6862B65B0104D5FA
:10068000322393429B415B42C018084B9A1A084B95
:100690005A43FA239B005843920D10187047C046E6
:1006A00018E000E05CFFFF1F04ED00E07FBB0000EE
:1006B0005555010070B50400FFF7D8FF0500002C68
:1006C0000FD0FFF7D3FF074B401B984206D9013CE0
:1006D000002C06D0FA239B00ED18F2E700F09CFEF8
:1006E000EFE770BDE703000080221E4BD20510B576
:1006F0001A608022002012061A601B4B1B491860EA
:100700001B4B1C4A1960282313601B4A1B4C1360A7
:100710001B4A13601B4A13601B4A13601B4A136079
:10072000092222601A4C20601A4C21601A4C236066
:100730001A4C23601A4C22601A4C20601A4801603F
:100740001A490B601A490B601A4B1A6000F05CFFE3
:100750001920FFF7AFFF00F007FE1420FF30FFF76E
:10076000A9FF10BD00E100E004800340FFBF0000CE
:10077000088003400C800340148003400080034045
:100780001C800340248003402C80034034800340BD
:1007900004900340089003400C90034014900340E1
:1007A0000090034004A0034008A003400CA00340B5
:1007B00014A0034000A003400B4B70B51B6805005C
:1007C0000A4C002B07D021883B2904D90022084875
:1007D00098470023238023883B2B03D85A1C228070
:1007E000034AD55470BDC04684FFFF1FD2000020CD
:1007F000D800002070B5094B1D78002D0CD1084C95
:100800002168002908D04B88002B05D09B000B8065
:10081000032000F079FA256070BDC04674FFFF1F09
:10082000A0FFFF1FF7B5B44E019033683500002BD1
:1008300013D1B24B1B78002B00D1A7E1042000F0AC
:100840000DFA3060002800D1A0E10488002C04D10A
:1008500000F0BEF93460200099E1286843889A08C6
:1008600092008218946802880433934201D2438034
:1008700005E000F0ADF9042000F0F0F928600F2346
:10088000250022099E491A401D40260A37000A7099
:100890002A001F40083A0137062A7FD8019A002A09
:1008A00002D0974200D071E1220B1340082D07D1EE
:1008B000082B00D06AE18022924B1A70924B21E003
:1008C000092D16D1092B00D060E1220E8D4B210C91
:1008D000002A07D0902018708C4BD2B21B68002BD6
:1008E00015D152E080201870874B1B68002B0ED169
:1008F0004BE00A2D0FD10A2B00D047E1A022814BFB
:100900001A70834B1B68002B3FD0220E210CC9B2FA
:10091000F8B2984739E00B2D07D10B2B00D035E109
:10092000B022784B1A707B4BECE70C2D07D10C2BC7
:1009300000D02BE1C022734B1A70774B08E00D2DCD
:100940000ED10D2B00D021E1D0226E4B1A70734BCB
:100950001B68002B19D0210CC9B2F8B2984714E0DB
:100960000E2B00D012E1E022664B1A706C4B1B6814
:10097000002B0AD0FE226102480E9201610C114048
:10098000684A01438918F8B29847674B220C1F70D8
:10099000664B240E1A70664B1C70AAE0AB1EF0B2B8
:1009A000012B05D9052D6DD1F02879D9F72877D0FD
:1009B000F1380E2800D9E9E000F0D2FE080A17E865
:1009C000E81EE823E82D3741E84B5500594B0DE070
:1009D000594B1A68002A52D0FE236002410E9B0137
:1009E000600C18400843904749E0544B1B68200CAA
:1009F000C0B2002B42D142E0514B1B68002B36D1D4
:100A00003DE0504B1B68002B31D14F4BF8201B6849
:100A1000002B33D133E04D4B1B68002B27D14A4BC1
:100A2000FA201B68002B29D129E0494B1B68002BB9
:100A30001DD1454BFB201B68002B1FD11FE0454BF0
:100A40001B68002B13D1404BFC201B68002B15D1D9
:100A500015E0414B1B68002B09D13B4BFE201B6866
:100A6000002B0BD10BE03D4B1B68002B01D09847AE
:100A700005E0354B1B68002B01D0FF209847214B28
:100A80001E7082E7042D08D1F0B2FFF795FE200C0E
:100A9000C0B2FFF791FE200E76E06B1F022B67D8E5
:100AA000F0B2FFF789FE052D08D0200CC0B2FFF789
:100AB00083FE072D02D1200EFFF77EFE284B1B4A36
:100AC000198811701A4A080A107000221A800D4BFA
:100AD000F0321A70234B1B68002B03D0EF3A2248E8
:100AE000984706E0214B01201B68002B4FD01E4881
:100AF000984701204BE0C046A8FFFF1F9B00002045
:100B0000D6000020D0000020B0FFFF1FB8FFFF1F5D
:100B100088FFFF1FB4FFFF1F78FFFF1F8CFFFF1F21
:100B20007CFFFF1F00E0FFFFD7000020D400002063
:100B3000D500002094FFFF1F80FFFF1FACFFFF1FA9
:100B400098FFFF1F60FFFF1F6CFFFF1F90FFFF1F3D
:100B500070FFFF1FA4FFFF1F68FFFF1F64FFFF1F41
:100B6000D200002084FFFF1FD80000209CFFFF1F41
:100B70000F2D0BD1F72800D91AE7F02803D0044B2A
:100B80001B88002B02D0F0B2FFF716FE0020FEBD3E
:100B9000D200002070B572B60B4D2C68200000F01A
:100BA0007FFE0F2802DD62B600200CE080231B06CA
:100BB000C3409C432C6062B648235843034B18182B
:100BC00000230360436070BD44FEFF1FC0F9FF1F98
:100BD00010B504000E484821201A00F0D5FD0F285A
:100BE00014D80C4B1B78002B07D00B4B1B78002B19
:100BF00003D0200000F04CF808E072B680231B06FA
:100C0000C340064A11680B43136062B610BDC0466C
:100C1000C0F9FF1F920000209B00002044FEFF1F30
:100C20000223F0B50A4A0B4E1478C8272343DB0091
:100C3000F518686008480578002D00D1403F090488
:100C40000F43F75001235D405C4005701470F0BD08
:100C50002400002000F8FF1F9C000020431E10B558
:100C60000020032B0ED872B6074A99008858002836
:100C700007D044685B008C50044904885A5A121B00
:100C80005A5262B610BDC046140000201401002064
:100C9000F8B572B60123174A082594461E00164976
:100CA00064465A1EA25C2A421AD05F017C589A0000
:100CB000002C05D1CB1908305860104BCB5109E0FE
:100CC0003243D2005458002C0AD18B180830586097
:100CD0000B4B8B500B4A1378013B137062B608E044
:100CE0000133052BDCD162B60022064B1A70FFF7E8
:100CF0006FFFF8BD6C1A000000F8FF1F880040006D
:100D0000C800400092000020421E10B5032A30D8CF
:100D1000022380001843174BC0001B1872B6164CF4
:100D2000A05C03280BD800F01BFD16040207052069
:100D300012E0083302200FE0083304200CE00F48D3
:100D4000920014580E4B002C01D1115001E098581C
:100D5000416099500CE00320A0540A0008325A6008
:100D6000C822180700D4403A098809040A431A60C7
:100D700062B610BD00F8FF1FD0FFFF1F6800002003
:100D800078000020F7B5B34B1C781D000423E4B2B3
:100D90001C421FD0B04B1B78002B18D0AF4A1378E1
:100DA000DBB2002B05D0013BDBB21370002B00D16E
:100DB00000BEAB4A1378DBB2002B06D0013BDBB29E
:100DC0001370002B01D100F003FCFFF713FD042288
:100DD000A04B1A700822224000D159E2A14BA24F29
:100DE0001B78DBB29C08E4001D093C19002D00D0E3
:100DF000DFE1236865689806000F01380C2800D9E8
:100E0000D3E100F0B7FC88018801D201D201D20100
:100E1000D201D201D201AF01D201D201D2010D0023
:100E20006B68924E9249736000230B6001219148D8
:100E30002A682060904C32602170904C92B23B61E5
:100E4000BB610190A24218D8D020C000824200D3DA
:100E5000E7E081204000824200D1C3E006D8802A2A
:100E600000D1A8E0822A00D1AAE0EFE0844B9A42A8
:100E700000D1C6E0FF33FF3319E0824B9A4200D124
:100E800046E10FD8A13B9A4200D18EE080339A42CE
:100E900000D0DBE03C003D00B2786F4B20341A708C
:100EA000A03508E0784B9A4200D10BE1774B9A428B
:100EB00000D107E1CAE080222368134203D06068B2
:100EC0000838FFF785FE0834AC42F4D10024250031
:100ED0006F4BE058002805D043680093FFF778FE79
:100EE0000098F7E76A4B18516A4BE0506A4BE0589C
:100EF000002805D043680093FFF76AFE0098F7E7E3
:100F0000654B664A1851664BE0506B00D052654BFA
:100F1000E85C0238032807D800F022FC020402042F
:100F2000002200E001225A5501350434042DCFD1AE
:100F3000002301245C4D2B705C4B5D49621EE3185D
:100F40008A5C9B001A7008231A4220D0FFF722FE09
:100F50006301002805D0FA1808305060554AFA504D
:100F600003E0F8502B7801332B70FFF713FE0122BA
:100F7000A3001343DB00002805D0FA1808305060A6
:100F8000019AFA5003E0F8502B789B182B7002213D
:100F90000023A2001143C9007B5003210A438A4069
:100FA0000134BB50052CC7D18DE02B4B424C1B7834
:100FB00023700B0088E0404C23706370022383E0B1
:100FC0007F22B0880240042A40D83B4C9200237014
:100FD00063703A4BD218022312781A4200D173E0A0
:100FE000217071E07F23B2881A40042A2ED87388BA
:100FF000002B2BD1022031499200521811788143E5
:101000000DE07F23B2881A40042A1FD87388002B72
:101010001CD1022029499200521811780143117005
:1010200051E07288B188264B5C68002C0ED018887D
:10103000904209D15888884206D1120A032A01D168
:10104000237841E01B893FE00C33EDE70F221B4B77
:101050001A705DE0802007409B00002025000020E2
:10106000CC0000209020074000F8FF1F88000020DF
:10107000BCFFFF1FC80040009C000020810600004C
:101080000203000021090000210A000021220000C3
:1010900014000020C0FFFF1F680000201401002082
:1010A00078000020D0FFFF1F9200002030C8011000
:1010B0006C1A00008800400093000020C020074008
:1010C000701A000000231C00F5889D4200D91D0005
:1010D0002E00402D00D9402620003100FFF7A0FD52
:1010E000A419AD1B03D12F00402E04D010E04027DF
:1010F000AF4200D92F0020003900FFF791FDE4191D
:10110000ED1B01D1402F03D17D4B1C607D4B1D8019
:1011100001227D4B48E07D4E7D4B32889A4203D1BF
:1011200000210800FFF77CFD7A4B32689A4216D105
:10113000794B72689A4212D12B78A92B0FD16B7818
:10114000452B0CD1AB78C22B09D1EB786B2B06D198
:1011500000210522714B08001A70FFF761FD704BEA
:10116000236022E0664F3E68002E13D0654B1C883A
:101170002500402C00D9402529003000FFF750FD04
:10118000641B604BA4B21C80002C01D1402D00D107
:1011900074193C60A0225D4BD2001988914204D1A1
:1011A00000225A709A785F4B1A700122564B1A70BF
:1011B0006AE008226068013D0838EDB2134037D07C
:1011C000FFF706FD5849A8004258584B002A1CD08A
:1011D000566846501100585D0831616003280BD8ED
:1011E00000F0BEFA02040608032104E0022102E036
:1011F000052100E0042159550821C8230C4200D1E3
:10120000403B1288120413433DE0585D032808D880
:1012100000F0A6FA3A3A0204002200E001225A55F0
:1012200032E008221440621E944102345C552BE0E7
:101230002268110C8AB2028000291ED03C494380EA
:101240004360AB005F583B4E002F01D1585001E086
:10125000F158486038496D00F0506B5AD2186A5204
:10126000FFF798FC002802D00830606005E0334AA0
:10127000206013780133137006E008231C4201D16B
:101280002F4B00E0264B236008222E4B1A707AE584
:10129000012004421ED002231B49294C0B702A4B0B
:1012A0002A4E1A702A4B1C609C602A4C1A61DC6022
:1012B0000D249A615E60284B1C70FF23274C23701D
:1012C000184C2B702270264A13709F22254B1A70DF
:1012D000087013E063B2002B04DA0D221E4B1A7063
:1012E00080232B700222144204D01C490B78DBB2FD
:1012F0000B702A7010231C4200D02B70F7BDC04623
:10130000BCFFFF1F900000209420074088000020B1
:101310002120000021090003010004002500002015
:10132000C80040009820074068000020D0FFFF1F41
:1013300014000020C0FFFF1F1401002092000020B5
:10134000880040008020074024000020D4FFFF1FB9
:1013500000F8FF1F28000020C02007408820074019
:101360008C2007408420074010B500F095F900223A
:1013700011001B4BD150981808324160A02AF9D1B6
:1013800080201849C0020A6802430A601A0A1649F6
:10139000D2B20A701A0C1549D2B20A70144A1B0E46
:1013A0001370FF23134A00201370134A134913705C
:1013B000134A137001220A701249087012490A7008
:1013C000124A116899430B0070210B43136080226D
:1013D0000F4B52041A6010220E4B1A7010BDC046FB
:1013E00000F8FF1F348004409C200740B0200740D5
:1013F000B420074080200740882007409420074001
:1014000010200740002107408420074018E400E036
:1014100000E100E008210740F8B52F4C2278002AAF
:1014200058D02E4E3378002B54D1013333701A42EA
:101430000DD000F0A3F8002801D000F09DF8284B53
:101440001B78002B03D00122237893432370237849
:101450009B0712D50025234B1B78AB420DD9224B9D
:10146000AA00D7583B6838001B699847002801D06C
:101470003B6998470135EDB2EDE7002333702378DF
:101480005B0727D519490B68002B23D0EFF30583A1
:10149000002B1FD1EFF3108272B60868002803D02A
:1014A000134C2578002D03D0002A13D162B611E029
:1014B0000123237043690B60002B01D09D6101E083
:1014C0000C490B60002A00D162B60025836845777D
:1014D00098472570F8BDC04648FEFF1F9D000020BC
:1014E00049FEFF1FC0000020B4000020AC00002017
:1014F000B0000020A8000020EFF3108072B6434235
:101500005841C0B27047002800D062B67047FFFF54
:1015100010B5FFF7F1FF0C4A1468002C10D0636976
:101520001360002B02D000229A6101E0074A136089
:10153000FFF7E9FF002320006377A3689847E8E7F7
:10154000FFF7E1FF10BDC046A0000020A40000206E
:1015500010B5FFF7DDFF10BD024A136801331360B9
:101560007047C0465CFFFF1F10B5FEF7EFFFFFF7A7
:1015700017F8FFF751FFFAE77047FFFF70B5124CFD
:101580002368002B04D0206842880188130010E0F3
:101590000E4B1B78002B03D00220FFF75FFB20606F
:1015A0002568002DEFD10CE0C618367A002E03D046
:1015B00001339D1A8B42F7DB002D02D1FFF708FBA8
:1015C0002560280070BDC046C80000209B00002098
:1015D00010B50B4B1B78DBB2002B0FD1094C2168E7
:1015E0004A883F2A03DC881803720132F9E7402356
:1015F00001200B80FFF788FB0023236010BDC0464D
:10160000C1000020C40000201B4B1C4A19781C4B51
:10161000082901D1002102E00A2903D12E311160ED
:10162000132206E00C2901D1283100E03C21116091
:1016300012221A60134B1A78134B002A01D0002291
:1016400000E001221A60114B1A78114B012A01D8CF
:1016500080220CE0042A01D8842208E0082A01D85C
:10166000852204E0102A01D8862200E087221A6031
:101670000122084B1A7070474AFEFF1F08B0034052
:101680000CB00340CE00002020B003404BFEFF1FF3
:1016900024B00340CD00002030B585B072B6702272
:1016A0004121154B1A70154A1170154A32391170C3
:1016B00080221A701A7852B2002AFBDA114B18688D
:1016C00062B6114B984201D80A23584301AC0A2252
:1016D000210000F01DF800230C48E15C0500002902
:1016E00005D05A008218013351800A2BF5D10133FD
:1016F0005B002B7005B030BD0000024007000240C7
:1017000006000240080002407F96980026FFFF1F57
:10171000F8B506000D00170000243900300000F075
:10172000B9F80B003733DBB2092901D83031CBB21D
:1017300030002B55390000F027F8061E01D0013487
:10174000EBE72B1958702B005A1B944206DD1A78D0
:10175000295D19702A550133013CF5E72800F8BDD1
:1017600002B4714649084900095C49008E4402BC34
:101770007047C04603B47146490840004900095A01
:1017800049008E4403BC7047002243088B4274D347
:1017900003098B425FD3030A8B4244D3030B8B4272
:1017A00028D3030C8B420DD3FF22090212BA030C7B
:1017B0008B4202D31212090265D0030B8B4219D35C
:1017C00000E0090AC30B8B4201D3CB03C01A52417C
:1017D000830B8B4201D38B03C01A5241430B8B42C4
:1017E00001D34B03C01A5241030B8B4201D30B03AD
:1017F000C01A5241C30A8B4201D3CB02C01A5241D4
:10180000830A8B4201D38B02C01A5241430A8B4296
:1018100001D34B02C01A5241030A8B4201D30B027F
:10182000C01A5241CDD2C3098B4201D3CB01C01A99
:10183000524183098B4201D38B01C01A52414309A3
:101840008B4201D34B01C01A524103098B4201D391
:101850000B01C01A5241C3088B4201D3CB00C01AFE
:10186000524183088B4201D38B00C01A5241430876
:101870008B4201D34B00C01A5241411A00D201469B
:10188000524110467047FFE701B5002000F006F80E
:1018900002BDC0460029F7D076E770477047C046C2
:1018A0001C2101231B04984201D3000C10391B0A90
:1018B000984201D3000A08391B09984201D3000954
:1018C000043902A2105C40187047C04604030202AB
:1018D0000101010100000000000000000E4B70B586
:1018E00000251E000D4CE41AA410A54204D0AB0044
:1018F000F35898470135F8E700F0F0F8084B002559
:101900001E00084CE41AA410A54204D0AB00F35802
:1019100098470135F8E770BDE81A0000E81A0000A2
:10192000E81A0000EC1A0000420000F840A0044051
:1019300001000000420000F844A004400200000042
:10194000C00000F800C0044001000000000000F8E2
:101950000490044002000000000000F808900440D9
:1019600004000000C00000F81CC00440800000001B
:10197000C00000F810C0044010000000C00000F8D3
:1019800008C0044004000000C00000F80CC004407F
:1019900008000000800000F80CB0044008000000BF
:1019A000800000F810B0044010000000800000F833
:1019B00018B0044040000000800000F81CB0044053
:1019C00080000000800000F814B0044020000000F7
:1019D000C00000F804C0044002000000800000F8CD
:1019E00000B0044001000000400000F800A00440E6
:1019F00001000000400000F804A0044002000000C4
:101A0000400000F80CA0044008000000400000F86E
:101A100008A0044004000000C00000F814C0044006
:101A200020000000C00000F818C004404000000082
:101A3000800000F804B0044002000000800000F8BC
:101A400008B0044004000000020100F850D0044037
:101A500010000000020100F854D0044020000000F3
:101A6000030100F878D00440400000001519151952
:101A7000000100004CFEFF1F1200000000020000E9
:101A800076FEFF1F7300000000220100E9FEFF1F29
:101A90002100000000210100D2FEFF1F090000000C
:101AA0000003000022FFFF1F0000000001030904E3
:101AB0005EFEFF1F00000000020309040AFFFF1F73
:101AC000000000000303090426FFFF1F00000000C0
:101AD000000000000000000000000000F8B5C04653
:0C1AE000F8BC08BC9E46704739040000AA
:041AEC00F8B5C04643
:101AF00001000000FFFFFFFF01010A0412011001B5
:101B000000000040C016850473020102030118039F
:101B10005400650065006E00730079006400750074
:101B200069006E006F0009027300020100C03209F3
:101B30000400000201030000072401000125000643
:101B40002402010100062402020200092403010309
:101B50000102010009240302040101010009050436
:101B60000240000000000525010101090583024033
:101B70000000000005250101030904010002030023
:101B80000000092111010001222100070581034005
:101B900000010705020320000206C9FF0904A15C39
:101BA0007508150026FF00954009758102952009EA
:101BB00076910295040976B102C0180354006500BD
:101BC00065006E007300790020004D00490044005C
:101BD0004900040309040C03000000000000000099
:0C1BE000000000000000000000000000F9
:00000001FF
